:020000040800F2
:1000000000280020811300081113000817130008AE
:100010001D13000823130008291300080000000026
:100020000000000000000000000000002F13000886
:100030003B1300080000000047130008531300089A
:10004000C9130008C9130008C9130008C913000820
:10005000C9130008C9130008C9130008C913000810
:10006000C9130008C9130008C9130008C913000800
:10007000C9130008C9130008C9130008C9130008F0
:10008000C9130008C9130008C9130008C9130008E0
:10009000C9130008C9130008C9130008C9130008D0
:1000A000C9130008C9130008C9130008C9130008C0
:1000B000C9130008C913000800000000C913000894
:1000C000C91300080000000000000000C913000868
:1000D0000000000061130008C913000800000000C0
:1000E000C9130008C9130008C91300080000000064
:1000F0000000000000000000000000000000000000
:0C01000000000000000000005FF808F1A3
:1001100010B5054C237833B9044B13B10448AFF341
:1001200000800123237010BD480000200000000063
:100130002445000808B5034B1BB103490348AFF33E
:10014000008008BD000000004C000020244500088D
:1001500070B54FF0FF0C4CF4E06C1CEA11541DBF5D
:100160001CEA135594EA0C0F95EA0C0F00F0DEF828
:100170002C4481EA030621EA4C5123EA4C5350EA0D
:10018000013518BF52EA033541F4801143F480135E
:1001900038D0A0FB02CE4FF00005E1FB02E506F0EF
:1001A0000042E0FB03E54FF00006E1FB03569CF044
:1001B000000F18BF4EF0010EA4F1FF04B6F5007F4A
:1001C00064F5407404D25FEA4E0E6D4146EB0606BC
:1001D00042EAC62141EA55514FEAC52040EA5E5045
:1001E0004FEACE2EB4F1FD0C88BFBCF5E06F1ED8EF
:1001F000BEF1004F08BF5FEA500E50F1000041EB26
:10020000045170BD06F0004646EA010140EA0200D2
:1002100081EA0301B4EB5C04C2BFD4EB0C0541EAF4
:10022000045170BD41F480114FF0000E013C00F309
:10023000AB8014F1360FDEBF002001F0004170BD2D
:10024000C4F10004203C35DA0C341BDC04F1140446
:10025000C4F1200500FA05F320FA04F001FA05F2D2
:1002600040EA020001F0004221F0004110EBD3709F
:1002700021FA04F642EB06015EEA430E08BF20EACB
:10028000D37070BDC4F10C04C4F1200500FA04F36E
:1002900020FA05F001FA04F240EA020001F0004100
:1002A00010EBD37041F100015EEA430E08BF20EA73
:1002B000D37070BDC4F1200500FA05F24EEA020EBB
:1002C00020FA04F301FA05F243EA020321FA04F0EA
:1002D00001F0004121FA04F220EA020000EBD370A1
:1002E0005EEA430E08BF20EAD37070BD94F0000FA1
:1002F0000FD101F00046400041EB010111F4801FD5
:1003000008BF013CF7D041EA060195F0000F18BF85
:10031000704703F00046520043EB030313F4801FC1
:1003200008BF013DF7D043EA0603704794EA0C0F7B
:100330000CEA135518BF95EA0C0F0CD050EA410691
:1003400018BF52EA4306D1D181EA030101F000410E
:100350004FF0000070BD50EA410606BF1046194636
:1003600052EA430619D094EA0C0F02D150EA013642
:1003700013D195EA0C0F05D152EA03361CBF104683
:1003800019460AD181EA030101F0004141F0FE4122
:1003900041F470014FF0000070BD41F0FE4141F4A6
:1003A000780170BD81F0004102E000BF83F000439E
:1003B00030B54FEA41044FEA430594EA050F08BF00
:1003C00090EA020F1FBF54EA000C55EA020C7FEAC4
:1003D000645C7FEA655C00F0E2804FEA5454D4EB41
:1003E0005555B8BF6D420CDD2C4480EA020281EA0B
:1003F000030382EA000083EA010180EA020281EA43
:100400000303362D88BF30BD11F0004F4FEA013194
:100410004FF4801C4CEA113102D0404261EB4101A3
:1004200013F0004F4FEA03334CEA133302D0524229
:1004300063EB430394EA050F00F0A780A4F10104E5
:10044000D5F1200E0DDB02FA0EFC22FA05F280181F
:1004500041F1000103FA0EF2801843FA05F3594105
:100460000EE0A5F120050EF1200E012A03FA0EFC84
:1004700028BF4CF0020C43FA05F3C01851EBE371AE
:1004800001F0004507D54FF0000EDCF1000C7EEBCB
:1004900000006EEB0101B1F5801F1BD3B1F5001F09
:1004A0000CD349085FEA30004FEA3C0C04F1010428
:1004B0004FEA445212F5800F80F09A80BCF1004F51
:1004C00008BF5FEA500C50F1000041EB045141EAD3
:1004D000050130BD5FEA4C0C404141EB0101013C9C
:1004E00028BFB1F5801FE9D291F0000F04BF01468B
:1004F0000020B1FA81F308BF2033A3F10B03B3F15D
:1005000020020CDA0C3208DD02F1140CC2F10C02EC
:1005100001FA0CF021FA02F10CE002F11402D8BF4A
:10052000C2F1200C01FA02F120FA0CFCDCBF41EA16
:100530000C019040E41AA2BF01EB0451294330BDE5
:100540006FEA04041F3C1CDA0C340EDC04F11404C2
:10055000C4F1200220FA04F001FA02F340EA030099
:1005600021FA04F345EA030130BDC4F10C04C4F1DF
:10057000200220FA02F001FA04F340EA03002946BF
:1005800030BD21FA04F0294630BD94F0000F83F409
:10059000801306BF81F480110134013D4EE77FEAEC
:1005A000645C18BF7FEA655C29D094EA050F08BF38
:1005B00090EA020F05D054EA000C04BF1946104619
:1005C00030BD91EA030F1EBF0021002030BD5FEA5D
:1005D000545C05D14000494128BF41F0004130BD85
:1005E00014F580043CBF01F5801130BD01F00045D9
:1005F00045F0FE4141F470014FF0000030BD7FEA4C
:10060000645C1ABF194610467FEA655C1CBF0B4646
:10061000024650EA013406BF52EA033591EA030F5D
:1006200041F4002130BD00BF90F0000F04BF002155
:10063000704730B54FF4806404F132044FF0000588
:100640004FF0000150E700BF90F0000F04BF002101
:10065000704730B54FF4806404F1320410F0004567
:1006600048BF40424FF000013EE700BF42004FEA62
:10067000E2014FEA31014FEA02701FBF12F07F43DF
:1006800093F07F4F81F06051704732F07F4208BF96
:10069000704793F07F4F04BF41F40021704730B59D
:1006A0004FF4607401F0004521F000411CE700BFE9
:1006B00050EA010208BF704730B54FF000050AE06C
:1006C00050EA010208BF704730B511F0004502D56D
:1006D000404261EB41014FF4806404F132045FEA6F
:1006E000915C3FF4D8AE4FF003025FEADC0C18BF18
:1006F00003325FEADC0C18BF033202EBDC02C2F10A
:10070000200300FA03FC20FA02F001FA03FE40EA9B
:100710000E0021FA02F11444BDE600BF4FF0FF3C89
:1007200006E000BF4FF0010C02E000BF4FF0010CEB
:100730004DF804CD4FEA410C7FEA6C5C4FEA430C64
:1007400018BF7FEA6C5C1BD001B050EA410C0CBFB3
:1007500052EA430C91EA030F02BF90EA020F002015
:10076000704710F1000F91EA030F58BF994208BF7C
:1007700090422CBFD8176FEAE37040F00100704739
:100780004FEA410C7FEA6C5C02D150EA013C07D190
:100790004FEA430C7FEA6C5CD6D152EA033CD3D0DB
:1007A0005DF8040B704700BF8446104662468C46D5
:1007B0001946634600E000BF01B5FFF7B7FF002808
:1007C00048BF10F1000F01BD4DF808EDFFF7F4FF31
:1007D0000CBF012000205DF808FB00BF4DF808EDBC
:1007E000FFF7EAFF34BF012000205DF808FB00BFDF
:1007F0004DF808EDFFF7E0FF94BF012000205DF801
:1008000008FB00BF4DF808EDFFF7CEFF94BF0120B5
:1008100000205DF808FB00BF4DF808EDFFF7C4FFAE
:1008200034BF012000205DF808FB00BF4FEA410201
:10083000B2F1E04324BFB3F5001CDCF1FE5C0DD93E
:1008400001F0004C4FEAC0024CEA5070B2F1004F88
:1008500040EB830008BF20F00100704711F0804F8B
:1008600021D113F13872BCBF01F00040704741F450
:1008700080114FEA5252C2F11802C2F1200C10FA54
:100880000CF320FA02F018BF40F001004FEAC12338
:100890004FEAD32303FA0CFC40EA0C0023FA02F3DC
:1008A0004FEA4303CCE77FEA625307D150EA0133B2
:1008B0001EBF4FF0FE4040F44000704701F0004082
:1008C00040F0FE4040F40000704700BF80F0004060
:1008D00002E000BF81F0004142001FBF5FEA410318
:1008E00092EA030F7FEA226C7FEA236C6AD04FEA18
:1008F0001262D2EB1363C1BFD2184140484041405D
:10090000B8BF5B42192B88BF704710F0004F40F40E
:10091000000020F07F4018BF404211F0004F41F42A
:10092000000121F07F4118BF494292EA030F3FD0F6
:10093000A2F1010241FA03FC10EB0C00C3F1200309
:1009400001FA03F100F0004302D5494260EB400098
:10095000B0F5000F13D3B0F1807F06D340084FEA03
:10096000310102F10102FE2A51D2B1F1004F40EBF8
:10097000C25008BF20F0010040EA03007047490060
:1009800040EB0000013A28BFB0F5000FEDD2B0FAFD
:1009900080FCACF1080CB2EB0C0200FA0CF0AABF20
:1009A00000EBC25052421843BCBFD04018437047BE
:1009B00092F0000F81F4000106BF80F400000132C4
:1009C000013BB5E74FEA41037FEA226C18BF7FEA9B
:1009D000236C21D092EA030F04D092F0000F08BFDD
:1009E0000846704790EA010F1CBF0020704712F0C4
:1009F0007F4F04D1400028BF40F00040704712F103
:100A000000723CBF00F50000704700F0004343F067
:100A1000FE4040F4000070477FEA226216BF08469D
:100A20007FEA23630146420206BF5FEA412390EA60
:100A3000010F40F4800070474FF0000304E000BF56
:100A400010F0004348BF40425FEA000C08BF704707
:100A500043F0964301464FF000001CE050EA0102CB
:100A600008BF70474FF000030AE000BF50EA0102E0
:100A700008BF704711F0004302D5404261EB4101CD
:100A80005FEA010C02BF84460146002043F0B643F2
:100A900008BFA3F18053A3F50003BCFA8CF2083A17
:100AA000A3EBC25310DB01FA02FC634400FA02FC20
:100AB000C2F12002BCF1004F20FA02F243EB020027
:100AC00008BF20F00100704702F1200201FA02FC89
:100AD000C2F1200250EA4C0021FA02F243EB02007C
:100AE00008BF20EADC70704780B483B000AF0346D3
:100AF000FB80084B1B6800225A6200BF054B1B6835
:100B00005A6AFB889A42F9D300BF00BF0C37BD4632
:100B100080BC7047B800002080B58CB002AF786010
:100B200001224FF48061494801F029F801224FF475
:100B30000071464801F023F84FF40061434801F08A
:100B400036F80A20FFF7D0FF00233B72902399B2BA
:100B500007F108024FF0FF33009301233C4801F0F6
:100B600083F90346FB75FB7D002B09D007F10803D1
:100B7000384A07CA03C31A800233120C1A703BE0CA
:100B8000902399B207F108024FF0FF33009302233C
:100B90002F4801F067FA0346FB75FB7D002B09D057
:100BA00007F108032C4A07CA03C31A800233120C48
:100BB0001A7021E03B7A1B011AB27B7A1B09DBB267
:100BC0001BB21343FB84B7F92630B3F5006F05DB86
:100BD000FB8C6FEA03536FEA1353FB84B7F926309B
:100BE0001846FFF731FD4FF000021C4BFFF7B0FA3B
:100BF00002460B46C7E906234FF07E517868FFF79F
:100C000069FE03461846FFF731FD02460B46D7E959
:100C10000601FFF7E3FD0346002B8DD14FF07E5117
:100C20007868FFF759FE03461846FFF71FFD024696
:100C30000B46D7E90601FFF7EFFD0346002B7FF4D3
:100C40007BAF00BF00BF2837BD4680BD0008014014
:100C5000640000203C450008484500080000B03F03
:100C600080B582B000AF01224FF48061164800F0D9
:100C700086FF01224FF40071134800F080FF02212B
:100C8000124800F065FF03463B6000237B600BE0E9
:100C90004FF400610C4800F08AFF4FF4FA7000F046
:100CA000F7FB7B6801337B607B68342BF0DD3B68AE
:100CB000002BE4D100224FF40071034800F05FFFE5
:100CC00000BF0837BD4680BD00080140000C014050
:100CD00080B584B000AF786039603B68012B06D1E5
:100CE00000224FF48061184800F049FF05E001221E
:100CF0004FF48061144800F042FF01224FF400716C
:100D0000114800F03CFF0023FB600BE04FF4006152
:100D10000D4800F04CFF4FF4FA7000F0B9FBFB688F
:100D20000133FB607B68352202FB03F3FA689A42C9
:100D3000ECDB00224FF40071034800F020FF00BFFD
:100D40001037BD4680BD00BF0008014080B582B0AD
:100D500000AF00224FF48061114800F010FF012223
:100D60004FF480710E4800F00AFF00237B600AE018
:100D70004FF400610A4800F01AFFFA2000F088FBE7
:100D80007B6801337B607B68C72BF1DD00224FF469
:100D90008071034800F0F3FE00BF0837BD4680BDF8
:100DA000000801400000000080B586B000AF00F0F0
:100DB0000DFB00F075F800F057F900F0DBF800F0DB
:100DC000ABF800F027F9304802F09EFB01222F49D2
:100DD0002F4802F03BFE2AA3D3E90023C7E90023F2
:100DE000D7E90001FFF722FD03461846FFF794FEFE
:100DF000FFF736FF05237B6100233B61234B1B7804
:100E00002F2B0FD9214B1B78342B0BD81F4B1B7862
:100E1000303B7B6101221D491D4802F017FE1B4B30
:100E200000221A700023FB6024E01A4AFB6852F883
:100E300023307A699A421AD1174AFB6852F8233054
:100E4000002B14D0FB68072B01DD01233B61134A03
:100E5000FB6852F8233039691846FFF739FFFFF76E
:100E600075FF0D4AFB68002142F8231005E0FB687E
:100E70000133FB60FB680E2BD7DDACE7AFF30080DE
:100E80000000000000C05240B800002048010020CF
:100E90000001002054450008000000209045000893
:100EA00080B590B000AF07F1180328220021184642
:100EB00003F00CFB3B1D00221A605A609A60DA6056
:100EC0001A610223BB610123BB621023FB62002372
:100ED0007B6307F11803184601F0B6FE0346002BAA
:100EE00001D000F01BF90F237B600023BB600023BF
:100EF000FB6000233B6100237B613B1D0021184602
:100F000002F024F90346002B01D000F007F900BFDE
:100F10004037BD4680BD000080B500AF124B134A7C
:100F20001A60114B124A5A600F4B00229A600E4B06
:100F30000022DA600C4B4FF480421A610A4B002207
:100F40005A61094B00229A61074B0022DA61064B75
:100F500000221A62044800F043FE0346002B01D031
:100F600000F0DCF800BF80BD6400002000540040A9
:100F7000A086010080B586B000AF07F1080300220B
:100F80001A605A609A60DA603B4600221A605A6022
:100F90001E4B1F4A1A601D4B07225A601B4B002232
:100FA0009A601A4B4FF6FE72DA60184B00221A61F3
:100FB000164B00225A61154B00229A61134802F029
:100FC00053FA0346002B01D000F0A8F84FF48053E9
:100FD000BB6007F1080319460C4802F0D9FA034632
:100FE000002B01D000F09AF800233B6000237B60C7
:100FF0003B461946054802F081FC0346002B01D010
:1010000000F08CF800BF1837BD4680BDB800002046
:10101000002C014080B500AF114B124A1A60104BF2
:101020004FF4E1325A600E4B00229A600C4B0022C2
:10103000DA600B4B00221A61094B0C225A61084BF3
:1010400000229A61064B0022DA61054802F0AEFCEC
:101050000346002B01D000F061F800BF80BD00BF47
:10106000000100200038014080B588B000AF07F1D2
:10107000100300221A605A609A60DA60244B9B6960
:10108000234A43F010039361214B9B6903F0100343
:10109000FB60FB681E4B9B691D4A43F0080393618C
:1010A0001B4B9B6903F00803BB60BB68184B9B6933
:1010B000174A43F004039361154B9B6903F0040343
:1010C0007B607B6800224FF47061124800F057FD8E
:1010D00002233B6100237B610023BB6107F1100306
:1010E00019460D4800F0B8FB4FF470633B610123D3
:1010F0007B610023BB610223FB6107F110031946EA
:10110000044800F0A9FB00BF2037BD4680BD00BFEA
:101110000010024000080140000C014080B400AF04
:1011200072B600BFFEE7000080B483B000AF0E4B84
:101130009B690D4A43F0010393610B4B9B6903F0DC
:1011400001037B607B68084BDB69074A43F08053EF
:10115000D361054BDB6903F080533B603B6800BF04
:101160000C37BD4680BC70470010024080B58AB085
:1011700000AF786007F1140300221A605A609A6089
:10118000DA607B681B681E4A934234D11D4B9B6911
:101190001C4A43F0080393611A4B9B6903F0080350
:1011A0003B613B694FF440737B611223BB610023B9
:1011B000FB6103233B6207F114031946124800F058
:1011C0004BFB124B5B687B627B6A43F0E0637B62A4
:1011D0007B6A43F002037B620C4A7B6A5360094BD3
:1011E000DB69084A43F40013D361064BDB6903F45F
:1011F0000013FB60FB6800BF2837BD4680BD00BF01
:101200000054004000100240000C0140000001406A
:1012100080B485B000AF78607B681B68094A934250
:101220000BD1094B9B69084A43F400639361064B59
:101230009B6903F40063FB60FB6800BF1437BD4685
:1012400080BC7047002C01400010024080B58AB07D
:1012500000AF786007F1140300221A605A609A60A8
:10126000DA607B681B68264A934245D1254B9B690F
:10127000244A43F480439361224B9B6903F48043E7
:101280003B613B691F4B9B691E4A43F00803936116
:101290001C4B9B6903F00803FB60FB6840237B61E8
:1012A0000223BB6103233B6207F11403194616486E
:1012B00000F0D2FA80237B610023BB610023FB6135
:1012C00007F114031946104800F0C6FA0F4B5B688B
:1012D0007B627B6A43F0E0637B627B6A43F00403DA
:1012E0007B620A4A7B6A536000220021252000F0BD
:1012F000CAF9252000F0E3F900BF2837BD4680BDBC
:101300000038014000100240000C01400000014084
:1013100080B400AFFEE780B400AFFEE780B400AF5A
:10132000FEE780B400AFFEE780B400AFFEE780B414
:1013300000AF00BFBD4680BC704780B400AF00BFA7
:10134000BD4680BC704780B400AF00BFBD4680BCC6
:10135000704780B500AF00F07FF800BF80BD00008F
:1013600080B500AF024802F097FB00BF80BD00BF10
:101370000001002080B400AF00BFBD4680BC7047B4
:10138000FFF7F8FF0B480C490C4A002302E0D45841
:10139000C4500433C4188C42F9D3094A094C0023C1
:1013A00001E013600432A242FBD303F097F8FFF789
:1013B000FBFC7047000000204800002000460008A9
:1013C0004800002050010020FEE7000080B500AF7B
:1013D000084B1B68074A43F010031360032000F01A
:1013E00047F90F2000F008F8FFF79EFE002318468B
:1013F00080BD00BF0020024080B582B000AF7860A1
:10140000124B1A68124B1B7819464FF47A73B3FBD0
:10141000F1F3B2FBF3F3184600F05FF90346002B3B
:1014200001D001230EE07B680F2B0AD800227968D7
:101430004FF0FF3000F027F9064A7B681360002365
:1014400000E0012318460837BD4680BD3C0000205F
:10145000440000204000002080B400AF054B1B7802
:101460001A46054B1B681344034A136000BFBD4670
:1014700080BC7047440000204C01002080B400AFC5
:10148000024B1B681846BD4680BC70474C010020CB
:1014900080B584B000AF7860FFF7F0FFB8607B687C
:1014A000FB60FB68B3F1FF3F05D00A4B1B781A467F
:1014B000FB681344FB6000BFFFF7E0FF0246BB6818
:1014C000D31AFA689A42F7D800BF00BF1037BD465A
:1014D00080BD00BF4400002080B485B000AF7860BC
:1014E0007B6803F00703FB600C4BDB68BB60BA68EA
:1014F0004FF6FF031340BB60FB681A02BB6813433F
:1015000043F0BF6343F40033BB60044ABB68D3605D
:1015100000BF1437BD4680BC704700BF00ED00E03F
:1015200080B400AF044BDB681B0A03F007031846C6
:10153000BD4680BC704700BF00ED00E080B483B0C2
:1015400000AF0346FB7197F90730002B0BDBFB79EB
:1015500003F01F02064997F907305B09012000FAE2
:1015600002F241F8232000BF0C37BD4680BC704713
:1015700000E100E080B483B000AF03463960FB7146
:1015800097F90730002B0ADB3B68DAB20C4997F970
:1015900007301201D2B20B4483F800230AE03B6803
:1015A000DAB20849FB7903F00F03043B1201D2B20F
:1015B0000B441A7600BF0C37BD4680BC704700BF95
:1015C00000E100E000ED00E080B489B000AFF86019
:1015D000B9607A60FB6803F00703FB61FB69C3F144
:1015E0000703042B28BF0423BB61FB690433062BCC
:1015F00002D9FB69033B00E000237B614FF0FF321F
:10160000BB6902FA03F3DA43BB681A407B699A406C
:101610004FF0FF317B6901FA03F3D9437B680B403C
:10162000134318462437BD4680BC704780B582B04E
:1016300000AF78607B68013BB3F1807F01D3012369
:101640000FE00A4A7B68013B53600F214FF0FF30E7
:10165000FFF790FF054B00229A60044B07221A60A7
:10166000002318460837BD4680BD00BF10E000E0EB
:1016700080B582B000AF78607868FFF72DFF00BFBB
:101680000837BD4680BD80B586B000AF0346B9605F
:101690007A60FB7300237B61FFF742FF78617A6811
:1016A000B9687869FFF790FF024697F90F30114645
:1016B0001846FFF75FFF00BF1837BD4680BD80B5F5
:1016C00082B000AF0346FB7197F907301846FFF769
:1016D00035FF00BF0837BD4680BD80B582B000AF82
:1016E00078607868FFF7A2FF034618460837BD46C2
:1016F00080BD80B485B000AF78600023FB737B6849
:1017000093F82130DBB2022B08D07B6804229A6365
:101710007B68002283F82020012320E07B681B687F
:101720001A687B681B6822F00E021A607B681B68CF
:101730001A687B681B6822F001021A607B681A6CC9
:101740007B68DB6B012101FA02F25A607B6801229F
:1017500083F821207B68002283F82020FB7B184639
:101760001437BD4680BC704780B584B000AF786048
:101770000023FB737B6893F82130DBB2022B05D08A
:101780007B6804229A630123FB7351E07B681B682A
:101790001A687B681B6822F00E021A607B681B685F
:1017A0001A687B681B6822F001021A607B681B685C
:1017B000224A934229D07B681B68214A934222D057
:1017C0007B681B681F4A93421AD07B681B681E4ABD
:1017D000934212D07B681B681C4A93420AD07B68F4
:1017E0001B681B4A934202D14FF480130EE04FF066
:1017F00080730BE04FF4803308E04FF4805305E032
:101800004FF4807302E0102300E00123114A53607B
:101810007B68012283F821207B68002283F8202046
:101820007B685B6B002B03D07B685B6B78689847A9
:10183000FB7B18461037BD4680BD00BF0800024044
:101840001C000240300002404400024058000240A8
:101850006C0002400000024080B48BB000AF7860A2
:10186000396000237B6200233B6261E101227B6AD5
:1018700002FA03F3FB613B681B68FA691340BB6122
:10188000BA69FB699A4240F050813B685B68974AAD
:1018900093425ED0954A934275D8954A934258D068
:1018A000934A93426FD8934A934252D0914A9342BB
:1018B00069D8914A93424CD08F4A934263D88F4A59
:1018C000934246D08D4A93425DD8122B2AD8122BD0
:1018D00059D801A252F823F0531900082D19000815
:1018E0003F190008811900088719000887190008A6
:1018F0008719000887190008871900088719000848
:101900008719000887190008871900088719000837
:101910008719000887190008871900083519000879
:1019200049190008764A934213D02CE03B68DB68E3
:101930003B6229E03B68DB6804333B6224E03B68A0
:10194000DB6808333B621FE03B68DB680C333B62BB
:101950001AE03B689B68002B02D104233B6213E032
:101960003B689B68012B05D108233B627B68FA69C1
:101970001A6109E008233B627B68FA695A6103E057
:1019800000233B6200E000BFBB69FF2B01D87B68EE
:1019900001E07B6804337B61BB69FF2B02D87B6A63
:1019A0009B0002E07B6A083B9B003B617B691A68F5
:1019B0000F213B6901FA03F3DB431A40396A3B69A3
:1019C00001FA03F31A437B691A603B685B6803F012
:1019D0008053002B00F0A9804A4B9B69494A43F091
:1019E00001039361474B9B6903F00103BB60BB6834
:1019F000454A7B6A9B08023352F82330FB607B6ABE
:101A000003F003039B000F2202FA03F3DB43FA689F
:101A10001340FB607B683D4A93420DD07B683C4A93
:101A2000934207D07B683B4A934201D1022304E0F2
:101A3000032302E0012300E000237A6A02F003029C
:101A400092009340FA681343FB602F497B6A9B081E
:101A50000233FA6841F823203B685B6803F4801383
:101A6000002B06D02C4B9A682B49BB6913438B6023
:101A700006E0294B9A68BB69DB43274913408B601A
:101A80003B685B6803F40013002B06D0224BDA6836
:101A90002149BB691343CB6006E01F4BDA68BB6981
:101AA000DB431D491340CB603B685B6803F40033A4
:101AB000002B06D0184B5A681749BB6913434B607B
:101AC00006E0154B5A68BB69DB43134913404B6072
:101AD0003B685B6803F48033002B1FD00E4B1A6801
:101AE0000D49BB6913430B601FE000BF00003210BB
:101AF0000000311000002210000021100000121020
:101B000000001110001002400000014000080140D8
:101B1000000C014000100140000401400B4B1A680A
:101B2000BB69DB43094913400B607B6A01337B626D
:101B30003B681A687B6A22FA03F3002B7FF496AEA7
:101B400000BF00BF2C37BD4680BC70470004014079
:101B500080B485B000AF78600B467B807B689A6864
:101B60007B881340002B02D00123FB7301E000238C
:101B7000FB73FB7B18461437BD4680BC704780B4AE
:101B800083B000AF78600B467B8013467B707B7818
:101B9000002B03D07A887B681A6103E07B881A04E3
:101BA0007B681A6100BF0C37BD4680BC704780B4AB
:101BB00085B000AF78600B467B807B68DB68FB609C
:101BC0007A88FB6813401A04FB68D9437B880B4072
:101BD0001A437B681A6100BF1437BD4680BC70474A
:101BE00080B584B000AF78607B68002B01D1012301
:101BF0002BE17B6893F83D30DBB2002B06D17B688C
:101C0000002283F83C207868FFF7B0FA7B68242232
:101C100083F83D207B681B681A687B681B6822F08C
:101C200001021A607B681B681A687B681B6842F4B3
:101C300000421A607B681B681A687B681B6822F484
:101C400000421A6001F0CAFBF8607B685B68814A59
:101C5000934207D8FB68804A934294BF0123002334
:101C6000DBB206E0FB687D4A934294BF0123002368
:101C7000DBB2002B01D00123E7E0FB68784AA2FB2E
:101C800003239B0CBB607B681B685B6823F03F01F0
:101C90007B681B68BA680A435A607B681B681B6ACA
:101CA00023F03F017B685B686A4A934202D8BB68B5
:101CB000013309E0BB684FF4967202FB03F3694AF3
:101CC000A2FB03239B0901337A6812680B4313625A
:101CD0007B681B68DB6923F44F4222F0FF027B68BC
:101CE0005B685C498B4219D8FB68591E7B685B684E
:101CF0005B00B1FBF3F3591C40F6FC730B40002B67
:101D00000AD0FB68591E7B685B685B00B1FBF3F38C
:101D10000133C3F30B0351E004234FE07B689B685E
:101D2000002B11D1FB68581E7B6859680B465B007D
:101D30000B44B0FBF3F30133C3F30B03002B0CBFD5
:101D400001230023DBB212E0FB68581E7B68596850
:101D50000B469B000B4499000B44B0FBF3F301339B
:101D6000C3F30B03002B0CBF01230023DBB2002BBA
:101D700001D0012322E07B689B68002B0ED1FB6819
:101D8000581E7B6859680B465B000B44B0FBF3F3AD
:101D90000133C3F30B0343F400430FE0FB68581E09
:101DA0007B6859680B469B000B4499000B44B0FBC1
:101DB000F3F30133C3F30B0343F440437968096839
:101DC0001343CB617B681B681B6823F0C0017B68F1
:101DD000DA697B681B6A1A437B681B680A431A60CE
:101DE0007B681B689B6823F4034323F0FF037A6836
:101DF00011697A68D26811437A6812680B4393605C
:101E00007B681B68DB6823F0FF017B685A697B688D
:101E10009B691A437B681B680A43DA607B681B680E
:101E20001A687B681B6842F001021A607B68002216
:101E30001A647B68202283F83D207B6800221A63A5
:101E40007B68002283F83E20002318461037BD46E9
:101E500080BD00BFA08601007F841E00FF083D00FA
:101E600083DE1B43D34D621080B588B002AFF860AB
:101E70007A601A460B467B8113463B81FFF7FEFAD8
:101E80007861FB6893F83D30DBB2202B40F0E080B6
:101E90007B690093192301227049F86800F09EFCC9
:101EA0000346002B01D00223D3E0FB6893F83C30BB
:101EB000012B01D10223CCE0FB68012283F83C20F6
:101EC000FB681B681B6803F00103012B07D0FB684C
:101ED0001B681A68FB681B6842F001021A60FB6805
:101EE0001B681A68FB681B6822F400621A60FB68B2
:101EF000212283F83D20FB68102283F83E20FB68F6
:101F000000221A64FB687A685A62FB683A895A852B
:101F1000FB685B8D9AB2FB681A85FB68504ADA62EF
:101F200079897B693A6AF86800F008FB0346002B60
:101F300001D001238DE000233B61FB681B685B69D6
:101F40003B61FB681B689B693B613B6966E07A69A2
:101F5000396AF86800F05CFD0346002B0DD0FB6881
:101F60001B6C042B07D1FB681B681A68FB681B6895
:101F700042F400721A6001236BE0FB685B6A1A7816
:101F8000FB681B681A61FB685B6A5A1CFB685A6233
:101F9000FB685B8D9BB2013B9AB2FB685A85FB687C
:101FA0001B8D013B9AB2FB681A85FB681B685B6955
:101FB00003F00403042B1BD1FB681B8D002B17D0EF
:101FC000FB685B6A1A78FB681B681A61FB685B6ACE
:101FD0005A1CFB685A62FB685B8D9BB2013B9AB24C
:101FE000FB685A85FB681B8D013B9AB2FB681A851A
:101FF0007A69396AF86800F053FD0346002B0DD06A
:10200000FB681B6C042B07D1FB681B681A68FB6814
:102010001B6842F400721A6001231AE0FB681B8DF2
:10202000002B94D1FB681B681A68FB681B6842F49C
:1020300000721A60FB68202283F83D20FB680022B2
:1020400083F83E20FB68002283F83C20002300E058
:10205000022318461837BD4680BD00BF020010009D
:102060000000FFFF80B58CB002AFF8607A601A46BE
:102070000B467B8113463B8100233B62FFF7FEF951
:102080007862FB6893F83D30DBB2202B40F04B8246
:102090007B6A0093192301227F49F86800F09EFBB8
:1020A0000346002B01D002233EE2FB6893F83C304C
:1020B000012B01D1022337E2FB68012283F83C2087
:1020C000FB681B681B6803F00103012B07D0FB684A
:1020D0001B681A68FB681B6842F001021A60FB6803
:1020E0001B681A68FB681B6822F400621A60FB68B0
:1020F000222283F83D20FB68102283F83E20FB68F3
:1021000000221A64FB687A685A62FB683A895A8529
:10211000FB685B8D9AB2FB681A85FB685F4ADA62DE
:1021200079897B6A3A6BF86800F08AFA0346002BDB
:1021300001D00123F8E1FB681B8D002B13D1002394
:10214000FB61FB681B685B69FB61FB681B689B6943
:10215000FB61FB69FB681B681A68FB681B6842F43B
:1021600000721A60CCE1FB681B8D012B1ED1FB684D
:102170001B681A68FB681B6822F480621A6072B6DA
:1021800000BF0023BB61FB681B685B69BB61FB6828
:102190001B689B69BB61BB69FB681B681A68FB68AD
:1021A0001B6842F400721A6062B635E0FB681B8D52
:1021B000022B1ED1FB681B681A68FB681B6842F47F
:1021C00000621A6072B600BF00237B61FB681B6867
:1021D0005B697B61FB681B689B697B617B69FB6852
:1021E0001B681A68FB681B6822F480621A6062B67A
:1021F00012E0FB681B681A68FB681B6842F4806287
:102200001A6000233B61FB681B685B693B61FB68EC
:102210001B689B693B613B6972E1FB681B8D032B6B
:1022200000F21F81FB681B8D012B23D17A6A396B69
:10223000F86800F07DFC0346002B01D0012373E118
:10224000FB681B681A69FB685B6AD2B21A70FB688C
:102250005B6A5A1CFB685A62FB681B8D013B9AB291
:10226000FB681A85FB685B8D9BB2013B9AB2FB68E9
:102270005A8545E1FB681B8D022B52D17B6A009386
:102280003B6B00220649F86800F0A8FA0346002BD1
:1022900008D0012348E100BF020010000000FFFF4A
:1022A0000400010072B600BFFB681B681A68FB6877
:1022B0001B6842F400721A60FB681B681A69FB68AD
:1022C0005B6AD2B21A70FB685B6A5A1CFB685A627E
:1022D000FB681B8D013B9AB2FB681A85FB685B8D1E
:1022E0009BB2013B9AB2FB685A8562B600BFFB689D
:1022F0001B681A69FB685B6AD2B21A70FB685B6A7A
:102300005A1CFB685A62FB681B8D013B9AB2FB6842
:102310001A85FB685B8D9BB2013B9AB2FB685A85BC
:10232000EEE07B6A00933B6B00228149F86800F085
:1023300055FA0346002B01D00123F5E0FB681B682A
:102340001A68FB681B6822F480621A6072B600BFCC
:10235000FB681B681A69FB685B6AD2B21A70FB687B
:102360005B6A5A1CFB685A62FB681B8D013B9AB280
:10237000FB681A85FB685B8D9BB2013B9AB2FB68D8
:102380005A856C4B1B68DB086B4AA2FB03231A0AB5
:1023900013469B001344DA00D31A3B623B6A013BAD
:1023A0003B623B6A002B18D1FB6800221A63FB6872
:1023B000202283F83D20FB68002283F83E20FB6842
:1023C0001B6C43F02002FB681A6462B600BFFB6816
:1023D000002283F83C200123A6E0FB681B685B69B0
:1023E00003F00403042BD9D1FB681B681A68FB684F
:1023F0001B6842F400721A60FB681B681A69FB686C
:102400005B6AD2B21A70FB685B6A5A1CFB685A623C
:10241000FB681B8D013B9AB2FB681A85FB685B8DDC
:102420009BB2013B9AB2FB685A8562B600BFFB685B
:102430001B681A69FB685B6AD2B21A70FB685B6A38
:102440005A1CFB685A62FB681B8D013B9AB2FB6801
:102450001A85FB685B8D9BB2013B9AB2FB685A857B
:102460004EE07A6A396BF86800F062FB0346002B95
:1024700001D0012358E0FB681B681A69FB685B6A9E
:10248000D2B21A70FB685B6A5A1CFB685A62FB681E
:102490001B8D013B9AB2FB681A85FB685B8D9BB272
:1024A000013B9AB2FB685A85FB681B685B6903F0C5
:1024B0000403042B24D1FB681B8D032B07D1FB687D
:1024C0001B681A68FB681B6822F480621A60FB684C
:1024D0001B681A69FB685B6AD2B21A70FB685B6A98
:1024E0005A1CFB685A62FB681B8D013B9AB2FB6861
:1024F0001A85FB685B8D9BB2013B9AB2FB685A85DB
:10250000FB681B8D002B7FF488AEFB68202283F8CC
:102510003D20FB68002283F83E20FB68002283F800
:102520003C20002300E0022318462837BD4680BD2A
:10253000040001003C00002089B5F81480B588B083
:1025400002AFF8607A603B600B467B81FB68DB6A18
:102550007B617B69082B06D07B69012B03D07B69EB
:1025600013F5803F08D1FB681B681A68FB681B687D
:1025700042F480721A600BE0FB681B6B122B07D1D0
:10258000FB681B681A68FB681B6842F480721A605B
:102590003B6800937B6800224FF00111F86800F05F
:1025A0001DF90346002B0DD0FB681B681B6803F464
:1025B0008073B3F5807F03D1FB684FF400721A6417
:1025C000032335E0FB681B69B3F5804F08D17B8995
:1025D000DBB21A46FB681B6802F0FE021A611BE0C0
:1025E0007B89DB11DBB203F00603DBB263F00F0380
:1025F000DAB2FB681B681A613B687A680E49F868B2
:1026000000F066F90346002B01D0012310E07B891E
:10261000DAB2FB681B681A613B687A680749F86898
:1026200000F056F90346002B01D0012300E00023FF
:1026300018461837BD4680BD0800010002000100A1
:1026400080B588B002AFF8607A603B600B467B8152
:10265000FB68DB6A7B61FB681B681A68FB681B68A8
:1026600042F480621A607B69082B06D07B69012BDB
:1026700003D07B6913F5803F08D1FB681B681A689B
:10268000FB681B6842F480721A600BE0FB681B6BEE
:10269000112B07D1FB681B681A68FB681B6842F4A2
:1026A00080721A603B6800937B6800224FF0011132
:1026B000F86800F093F80346002B0DD0FB681B6808
:1026C0001B6803F48073B3F5807F03D1FB684FF47C
:1026D00000721A64032379E0FB681B69B3F5804F2D
:1026E00008D17B89DBB243F00103DAB2FB681B68D7
:1026F0001A615FE07B89DB11DBB203F00603DBB21A
:1027000063F00F03DAB2FB681B681A613B687A68F2
:102710003049F86800F0DCF80346002B01D00123B3
:1027200054E07B89DAB2FB681B681A613B687A68FF
:102730002949F86800F0CCF80346002B01D00123AA
:1027400044E000233B61FB681B685B693B61FB68FD
:102750001B689B693B613B69FB681B681A68FB68E7
:102760001B6842F480721A603B6800937B68002209
:102770004FF00111F86800F031F80346002B0DD03E
:10278000FB681B681B6803F48073B3F5807F03D17B
:10279000FB684FF400721A64032317E07B89DB1196
:1027A000DBB203F00603DBB263F00E03DAB2FB68C0
:1027B0001B681A613B687A680749F86800F088F876
:1027C0000346002B01D0012300E0002318461837F0
:1027D000BD4680BD080001000200010080B584B044
:1027E00000AFF860B9603B601346FB7148E03B689E
:1027F000B3F1FF3F44D0FEF741FE0246BB69D31A56
:102800003A689A4202D33B68002B39D1BB681B0C53
:10281000DBB2012B0DD1FB681B685B69DA43BB6837
:1028200013409BB2002B0CBF01230023DBB21A46DE
:102830000CE0FB681B689B69DA43BB6813409BB2E2
:10284000002B0CBF01230023DBB21A46FB799A420E
:1028500016D1FB6800221A63FB68202283F83D2012
:10286000FB68002283F83E20FB681B6C43F02002CB
:10287000FB681A64FB68002283F83C20012323E0F4
:10288000BB681B0CDBB2012B0DD1FB681B685B69BD
:10289000DA43BB6813409BB2002B0CBF012300231B
:1028A000DBB21A460CE0FB681B689B69DA43BB6825
:1028B00013409BB2002B0CBF01230023DBB21A464E
:1028C000FB799A4293D0002318461037BD4680BD4D
:1028D00080B584B000AFF860B9607A603B6071E0A9
:1028E000FB681B685B6903F48063B3F5806F23D1D9
:1028F000FB681B681A68FB681B6842F400721A6068
:10290000FB681B686FF480625A61FB6800221A63DF
:10291000FB68202283F83D20FB68002283F83E20DC
:10292000FB681B6C43F00402FB681A64FB6800221E
:1029300083F83C20012367E07B68B3F1FF3F41D07F
:10294000FEF79CFD02463B68D31A7A689A4202D38E
:102950007B68002B36D1BB681B0CDBB2012B0CD182
:10296000FB681B685B69DA43BB6813409BB2002BB2
:1029700014BF01230023DBB20BE0FB681B689B69DB
:10298000DA43BB6813409BB2002B14BF0123002322
:10299000DBB2002B16D0FB6800221A63FB682022F2
:1029A00083F83D20FB68002283F83E20FB681B6C07
:1029B00043F02002FB681A64FB68002283F83C2085
:1029C000012321E0BB681B0CDBB2012B0CD1FB689F
:1029D0001B685B69DA43BB6813409BB2002B14BFD2
:1029E00001230023DBB20BE0FB681B689B69DA4321
:1029F000BB6813409BB2002B14BF01230023DBB242
:102A0000002B7FF46DAF002318461037BD4680BD04
:102A100080B584B000AFF860B9607A6034E0F868DF
:102A200000F0E3F80346002B01D0012334E0BB683B
:102A3000B3F1FF3F28D0FEF721FD02467B68D31A91
:102A4000BA689A4202D3BB68002B1DD1FB681B6891
:102A50005B6903F08003802B16D0FB6800221A63A9
:102A6000FB68202283F83D20FB68002283F83E208B
:102A7000FB681B6C43F02002FB681A64FB680022B1
:102A800083F83C20012307E0FB681B685B6903F0C7
:102A90008003802BC3D1002318461037BD4680BD6C
:102AA00080B584B000AFF860B9607A6034E0F8684F
:102AB00000F09BF80346002B01D0012334E0BB68F3
:102AC000B3F1FF3F28D0FEF7D9FC02467B68D31A4A
:102AD000BA689A4202D3BB68002B1DD1FB681B6801
:102AE0005B6903F00403042B16D0FB6800221A6311
:102AF000FB68202283F83D20FB68002283F83E20FB
:102B0000FB681B6C43F02002FB681A64FB68002220
:102B100083F83C20012307E0FB681B685B6903F036
:102B20000403042BC3D1002318461037BD4680BDD3
:102B300080B584B000AFF860B9607A6049E0FB68A6
:102B40001B685B6903F01003102B19D1FB681B682D
:102B50006FF010025A61FB6800221A63FB682022A2
:102B600083F83D20FB68002283F83E20FB681A6C46
:102B7000FB681A64FB68002283F83C20012330E0E4
:102B8000FEF77CFC02467B68D31ABA689A4202D3ED
:102B9000BB68002B1DD1FB681B685B6903F0400319
:102BA000402B16D0FB6800221A63FB68202283F8B2
:102BB0003D20FB68002283F83E20FB681B6C43F03D
:102BC0002002FB681A64FB68002283F83C20012382
:102BD00007E0FB681B685B6903F04003402BAED144
:102BE000002318461037BD4680BD80B483B000AFC7
:102BF00078607B681B685B6903F48063B3F5806F62
:102C00001BD17B681B686FF480625A617B6800226D
:102C10001A637B68202283F83D207B68002283F8BA
:102C20003E207B681B6C43F004027B681A647B685F
:102C3000002283F83C20012300E0002318460C37D3
:102C4000BD4680BC7047000080B586B000AF78609C
:102C50007B68002B01D1012372E27B681B6803F0C3
:102C60000103002B00F08780924B5B6803F00C039C
:102C7000042B0CD08F4B5B6803F00C03082B12D194
:102C80008C4B5B6803F48033B3F5803F0BD1894BE9
:102C90001B6803F40033002B6CD07B685B68002B4F
:102CA00068D101234CE27B685B68B3F5803F06D1B5
:102CB000804B1B687F4A43F4803313602EE07B68AF
:102CC0005B68002B0CD17B4B1B687A4A23F4803362
:102CD0001360784B1B68774A23F4802313601DE050
:102CE0007B685B68B3F5A02F0CD1724B1B68714AEF
:102CF00043F4802313606F4B1B686E4A43F48033A8
:102D000013600BE06B4B1B686A4A23F4803313603B
:102D1000684B1B68674A23F4802313607B685B68F9
:102D2000002B13D0FEF7AAFB386108E0FEF7A6FBE4
:102D300002463B69D31A642B01D9032300E25D4BA1
:102D40001B6803F40033002BF0D014E0FEF796FB71
:102D5000386108E0FEF792FB02463B69D31A642B08
:102D600001D90323ECE1534B1B6803F40033002B20
:102D7000F0D100E000BF7B681B6803F00203002B6A
:102D800063D04C4B5B6803F00C03002B0BD0494B1A
:102D90005B6803F00C03082B1CD1464B5B6803F403
:102DA0008033002B16D1434B1B6803F00203002B2A
:102DB00005D07B681B69012B01D00123C0E13D4B8D
:102DC0001B6823F0F8027B685B69DB003949134319
:102DD0000B603AE07B681B69002B20D0364B012248
:102DE0001A60FEF74BFB386108E0FEF747FB02462E
:102DF0003B69D31A022B01D90323A1E12D4B1B6898
:102E000003F00203002BF0D02A4B1B6823F0F802DA
:102E10007B685B69DB00274913430B6015E0264B99
:102E200000221A60FEF72AFB386108E0FEF726FB55
:102E300002463B69D31A022B01D9032380E11D4BC3
:102E40001B6803F00203002BF0D17B681B6803F0C2
:102E50000803002B3AD07B689B69002B19D0174BD5
:102E600001221A60FEF70AFB386108E0FEF706FB54
:102E700002463B69D31A022B01D9032360E10D4BB3
:102E80005B6A03F00203002BF0D0012000F0CEFAC1
:102E90001CE00A4B00221A60FEF7F0FA38610FE0DE
:102EA000FEF7ECFA02463B69D31A022B08D903233A
:102EB00046E100BF0010024000004242800442424E
:102EC000924B5B6A03F00203002BE9D17B681B681D
:102ED00003F00403002B00F0A6800023FB758B4B4E
:102EE000DB6903F08053002B0DD1884BDB69874AE7
:102EF00043F08053D361854BDB6903F08053BB60A3
:102F0000BB680123FB75824B1B6803F48073002BA5
:102F100018D17F4B1B687E4A43F480731360FEF721
:102F2000ADFA386108E0FEF7A9FA02463B69D31A08
:102F3000642B01D9032303E1754B1B6803F48073F1
:102F4000002BF0D07B68DB68012B06D16F4B1B6A2E
:102F50006E4A43F0010313622DE07B68DB68002BAF
:102F60000CD16A4B1B6A694A23F001031362674B59
:102F70001B6A664A23F0040313621CE07B68DB686B
:102F8000052B0CD1614B1B6A604A43F004031362AA
:102F90005E4B1B6A5D4A43F0010313620BE05B4B1F
:102FA0001B6A5A4A23F001031362584B1B6A574AA3
:102FB00023F0040313627B68DB68002B15D0FEF757
:102FC0005DFA38610AE0FEF759FA02463B69D31A06
:102FD00041F28832934201D90323B1E04B4B1B6A83
:102FE00003F00203002BEED014E0FEF747FA38613D
:102FF0000AE0FEF743FA02463B69D31A41F28832EF
:10300000934201D903239BE0404B1B6A03F0020368
:10301000002BEED1FB7D012B05D13C4BDB693B4AFC
:1030200023F08053D3617B68DB69002B00F087803D
:10303000364B5B6803F00C03082B61D07B68DB69BF
:10304000022B46D1334B00221A60FEF717FA386183
:1030500008E0FEF713FA02463B69D31A022B01D9A6
:1030600003236DE0294B1B6803F00073002BF0D1A4
:103070007B681B6AB3F5803F08D1244B5B6823F45F
:1030800000327B689B68214913434B601F4B5B6890
:1030900023F474127B68196A7B685B6A0B431B49D3
:1030A00013434B601B4B01221A60FEF7E7F93861AE
:1030B00008E0FEF7E3F902463B69D31A022B01D977
:1030C00003233DE0114B1B6803F00073002BF0D08D
:1030D00035E0104B00221A60FEF7D0F9386108E0A5
:1030E000FEF7CCF902463B69D31A022B01D9032320
:1030F00026E0064B1B6803F00073002BF0D11EE0A6
:103100007B68DB69012B07D1012319E00010024025
:1031100000700040600042420B4B5B68FB60FB6844
:1031200003F480327B681B6A9A4206D1FB6803F481
:1031300070127B685B6A9A4201D0012300E0002391
:1031400018461837BD4680BD0010024080B584B0D7
:1031500000AF786039607B68002B01D10123D0E09B
:103160006A4B1B6803F007033A689A4210D9674B11
:103170001B6823F0070265493B6813430B60634BF0
:103180001B6803F007033A689A4201D00123B8E0B4
:103190007B681B6803F00203002B20D07B681B6850
:1031A00003F00403002B05D0594B5B68584A43F4E5
:1031B000E06353607B681B6803F00803002B05D0B5
:1031C000534B5B68524A43F460535360504B5B6807
:1031D00023F0F0027B689B684D4913434B607B688A
:1031E0001B6803F00103002B40D07B685B68012B58
:1031F00007D1474B1B6803F40033002B15D1012383
:103200007FE07B685B68022B07D1414B1B6803F0B2
:103210000073002B09D1012373E03D4B1B6803F0C1
:103220000203002B01D101236BE0394B5B6823F0D3
:1032300003027B685B68364913434B60FEF71EF957
:10324000F8600AE0FEF71AF90246FB68D31A41F269
:103250008832934201D9032353E02D4B5B6803F07E
:103260000C027B685B689B009A42EBD1274B1B6882
:1032700003F007033A689A4210D2244B1B6823F0EC
:10328000070222493B6813430B60204B1B6803F085
:1032900007033A689A4201D0012332E07B681B6839
:1032A00003F00403002B08D0194B5B6823F4E062A1
:1032B0007B68DB68164913434B607B681B6803F02F
:1032C0000803002B09D0124B5B6823F460527B6823
:1032D0001B69DB000E4913434B6000F021F80246E6
:1032E0000B4B5B681B0903F00F030A49CB5C22FA06
:1032F00003F3094A1360094B1B681846FEF77CF874
:10330000002318461037BD4680BD00BF0020024094
:1033100000100240CC4500083C0000204000002086
:1033200080B487B000AF0023FB600023BB600023A4
:103330007B6100237B6000233B611E4B5B68FB606D
:10334000FB6803F00C03042B02D0082B03D027E00A
:10335000194B3B6127E0FB689B0C03F00F03174AF6
:10336000D35C7B60FB6803F48033002B10D0114BDF
:103370005B685B0C03F00103114AD35CBB607B68A4
:103380000D4A03FB02F2BB68B2FBF3F37B6104E07E
:103390007B680C4A02FB03F37B617B693B6102E0C3
:1033A000054B3B6100BF3B6918461C37BD4680BCDE
:1033B000704700BF0010024000127A00E445000888
:1033C000F445000800093D0080B400AF024B1B68C3
:1033D0001846BD4680BC70473C00002080B500AF59
:1033E000FFF7F2FF0246054B5B681B0A03F0070379
:1033F0000349CB5C22FA03F3184680BD001002405B
:10340000DC45000880B500AFFFF7DEFF0246054B44
:103410005B68DB0A03F007030349CB5C22FA03F382
:10342000184680BD00100240DC45000880B485B01D
:1034300000AF78600A4B1B680A4AA2FB03235B0AB1
:103440007A6802FB03F3FB6000BFFB685A1EFA6058
:10345000002BF9D100BF00BF1437BD4680BC7047B8
:103460003C000020D34D621080B582B000AF786080
:103470007B68002B01D1012341E07B6893F83D304C
:10348000DBB2002B06D17B68002283F83C207868F1
:10349000FDF7BEFE7B68022283F83D207B681A6838
:1034A0007B6804331946104600F03AF97B68012224
:1034B00083F846207B68012283F83E207B68012246
:1034C00083F83F207B68012283F840207B6801223B
:1034D00083F841207B68012283F842207B68012227
:1034E00083F843207B68012283F844207B68012213
:1034F00083F845207B68012283F83D20002318468D
:103500000837BD4680BD000080B485B000AF78604C
:103510007B6893F83D30DBB2012B01D001232DE015
:103520007B68022283F83D207B681B68164A934221
:1035300009D07B681B68B3F1804F04D07B681B689F
:10354000124A934211D17B681B689B6803F0070302
:10355000FB60FB68062B10D07B681B681A687B68D1
:103560001B6842F001021A6007E07B681B681A685A
:103570007B681B6842F001021A600023184614376A
:10358000BD4680BC704700BF002C014000040040D5
:1035900080B584B000AF786039600023FB737B682E
:1035A00093F83C30012B01D10223B4E07B68012267
:1035B00083F83C207B68022283F83D207B681B68EF
:1035C0009B68BB60BB6823F07703BB60BB6823F4D8
:1035D0007F43BB607B681B68BA689A603B681B6866
:1035E000B3F5005F3ED0B3F5005F00F28780B3F51E
:1035F000805F00F08680B3F5805F7FD8702B1AD093
:10360000702B7BD8602B50D0602B77D8502B3CD0C0
:10361000502B73D8402B58D0402B6FD8302B64D010
:10362000302B6BD8202B60D0202B67D8002B5CD0A0
:10363000102B5AD062E07B6818683B6899683B6839
:103640005A683B68DB6800F03AF97B681B689B6846
:10365000BB60BB6843F07703BB607B681B68BA68DC
:103660009A604FE07B6818683B6899683B685A68C5
:103670003B68DB6800F023F97B681B689A687B680D
:103680001B6842F480429A603CE07B6818683B68A3
:1036900059683B68DB681A4600F09AF87B681B683B
:1036A0005021184600F0F1F82CE07B6818683B6860
:1036B00059683B68DB681A4600F0B8F87B681B68FD
:1036C0006021184600F0E1F81CE07B6818683B6850
:1036D00059683B68DB681A4600F07AF87B681B681B
:1036E0004021184600F0D1F80CE07B681A683B686E
:1036F0001B681946104600F0C8F803E00123FB736D
:1037000000E000BF7B68012283F83D207B68002237
:1037100083F83C20FB7B18461037BD4680BD000077
:1037200080B485B000AF786039607B681B68FB604F
:103730007B68254A934207D07B68B3F1804F03D062
:103740007B68224A934208D1FB6823F07003FB6038
:103750003B685B68FA681343FB607B681A4A9342D4
:1037600007D07B68B3F1804F03D07B68174A934240
:1037700008D1FB6823F44073FB603B68DB68FA68A0
:103780001343FB60FB6823F080023B685B691343D3
:10379000FB607B68FA681A603B689A687B68DA624B
:1037A0003B681A687B689A627B68074A934203D138
:1037B0003B681A697B681A637B6801225A6100BF03
:1037C0001437BD4680BC7047002C01400004004007
:1037D00080B487B000AFF860B9607A60FB681B6A9C
:1037E0007B61FB681B6A23F00102FB681A62FB68BD
:1037F0009B693B613B6923F0F0033B617B681B01E4
:103800003A6913433B617B6923F00A037B617A6960
:10381000BB6813437B61FB683A699A61FB687A690C
:103820001A6200BF1C37BD4680BC704780B487B0A9
:1038300000AFF860B9607A60FB681B6A7B61FB6867
:103840001B6A23F01002FB681A62FB689B693B61EC
:103850003B6923F470433B617B681B033A69134364
:103860003B617B6923F0A0037B61BB681B017A6924
:1038700013437B61FB683A699A61FB687A691A6253
:1038800000BF1C37BD4680BC704780B485B000AF18
:10389000786039607B689B68FB60FB6823F070038D
:1038A000FB603A68FB68134343F00703FB607B68E7
:1038B000FA689A6000BF1437BD4680BC704780B478
:1038C00087B000AFF860B9607A603B60FB689B68C6
:1038D0007B617B6923F47F437B613B681A027B68D1
:1038E0001A43BB6813437A6913437B61FB687A69A7
:1038F0009A6000BF1C37BD4680BC704780B485B05D
:1039000000AF786039607B6893F83C30012B01D1BF
:10391000022341E07B68012283F83C207B6802227D
:1039200083F83D207B681B685B68FB607B681B68D5
:103930009B68BB60FB6823F07003FB603B681B68FF
:10394000FA681343FB607B681B68FA685A607B68FF
:103950001B68144A934209D07B681B68B3F1804FFF
:1039600004D07B681B68104A93420CD1BB6823F0DB
:103970008003BB603B685B68BA681343BB607B68CD
:103980001B68BA689A607B68012283F83D207B68D7
:10399000002283F83C20002318461437BD4680BC23
:1039A000704700BF002C01400004004080B582B089
:1039B00000AF78607B68002B01D1012342E07B6877
:1039C00093F84130DBB2002B06D17B68002283F8EC
:1039D00040207868FDF73AFC7B68242283F8412078
:1039E0007B681B68DA687B681B6822F40052DA6027
:1039F000786800F0DDFC7B681B681A697B681B68CF
:103A000022F490421A617B681B685A697B681B68C4
:103A100022F02A025A617B681B68DA687B681B689F
:103A200042F40052DA607B6800225A647B682022EC
:103A300083F841207B68202283F842207B680022A3
:103A40005A63002318460837BD4680BD80B584B050
:103A500000AFF860B9601346FB80FB6893F8423012
:103A6000DBB2202B12D1BB68002B02D0FB88002BCD
:103A700001D101230BE0FB6800221A63FB881A4680
:103A8000B968F86800F0C0FA034600E0022318465F
:103A90001037BD4680BD000080B5BAB000AF786079
:103AA0007B681B681B68C7F8E4307B681B68DB68B1
:103AB000C7F8E0307B681B685B69C7F8DC3000231F
:103AC000C7F8D8300023C7F8D430D7F8E43003F073
:103AD0000F03C7F8D830D7F8D830002B0FD1D7F85C
:103AE000E43003F02003002B09D0D7F8E03003F0D6
:103AF0002003002B03D0786800F09CFB5BE2D7F832
:103B0000D830002B00F0DE80D7F8DC3003F0010362
:103B1000002B06D1D7F8E03003F49073002B00F0AF
:103B2000D180D7F8E43003F00103002B0BD0D7F895
:103B3000E03003F48073002B05D07B685B6C43F0AE
:103B400001027B685A64D7F8E43003F00403002BC9
:103B50000BD0D7F8DC3003F00103002B05D07B68D5
:103B60005B6C43F002027B685A64D7F8E43003F0E0
:103B70000203002B0BD0D7F8DC3003F00103002B3D
:103B800005D07B685B6C43F004027B685A64D7F80D
:103B9000E43003F00803002B11D0D7F8E03003F035
:103BA0002003002B05D1D7F8DC3003F00103002BF4
:103BB00005D07B685B6C43F008027B685A647B68C5
:103BC0005B6C002B00F0F281D7F8E43003F02003A7
:103BD000002B08D0D7F8E03003F02003002B02D0F0
:103BE000786800F027FB7B681B685B6903F0400383
:103BF000002B14BF01230023DBB2C7F8D4307B684D
:103C00005B6C03F00803002B03D1D7F8D430002BF2
:103C10004FD0786800F031FA7B681B685B6903F06D
:103C20004003002B41D07B681B681433C7F89C30DD
:103C3000D7F89C3053E8003FC7F89830D7F8983051
:103C400023F04003C7F8D0307B681B681433D7F8E3
:103C5000D020C7F8A820C7F8A430D7F8A410D7F808
:103C6000A82041E80023C7F8A030D7F8A030002BE7
:103C7000D9D17B68DB6B002B13D07B68DB6B7E4A72
:103C80005A637B68DB6B1846FDF76EFD0346002B1D
:103C900016D07B68DB6B5B6B7A68D26B10469847FB
:103CA0000EE0786800F09CF90AE0786800F098F976
:103CB00006E0786800F094F97B6800225A6475E1A8
:103CC00000BF73E17B681B6B012B40F04F81D7F87D
:103CD000E43003F01003002B00F04881D7F8E03007
:103CE00003F01003002B00F041810023BB607B68D0
:103CF0001B681B68BB607B681B685B68BB60BB683C
:103D00007B681B685B6903F04003002B00F0B68002
:103D10007B68DB6B1B685B68A7F8BE30B7F8BE300A
:103D2000002B00F045817B689B8DB7F8BE209A423E
:103D300080F03E817B68B7F8BE20DA857B68DB6B5C
:103D40009B69202B00F088807B681B680C33C7F8C8
:103D50008830D7F8883053E8003FC7F88430D7F868
:103D6000843023F48073C7F8B8307B681B680C3349
:103D7000D7F8B820C7F89420C7F89030D7F890103B
:103D8000D7F8942041E80023C7F88C30D7F88C305E
:103D9000002BD9D17B681B6814337B677B6F53E89A
:103DA000003F3B673B6F23F00103C7F8B4307B68EB
:103DB0001B681433D7F8B420C7F88020FB67F96F6D
:103DC000D7F8802041E80023BB67BB6F002BE1D10F
:103DD0007B681B6814333B663B6E53E8003FFB6512
:103DE000FB6D23F04003C7F8B0307B681B681433C9
:103DF000D7F8B020FA66BB66B96EFA6E41E80023C8
:103E00007B667B6E002BE3D17B68202283F8422007
:103E10007B6800221A637B681B680C33FB64FB6CB5
:103E200053E8003FBB64BB6C23F01003C7F8AC3011
:103E30007B681B680C33D7F8AC20BA657B65796D5D
:103E4000BA6D41E800233B653B6D002BE3D17B68F5
:103E5000DB6B1846FDF74DFC7B6802225A637B68DA
:103E60009A8D7B68DB8D9BB2D31A9BB2194678681A
:103E700000F0BFF89CE000BF3F4100087B689A8DCE
:103E80007B68DB8D9BB2D31AA7F8CE307B68DB8DC5
:103E90009BB2002B00F08E80B7F8CE30002B00F0E4
:103EA00089807B681B680C33BB63BB6B53E8003FA6
:103EB0007B637B6B23F49073C7F8C8307B681B6807
:103EC0000C33D7F8C8207A643B64396C7A6C41E8CB
:103ED0000023FB63FB6B002BE3D17B681B6814336F
:103EE0007B627B6A53E8003F3B623B6A23F001033D
:103EF000C7F8C4307B681B681433D7F8C4203A6312
:103F0000FB62F96A3A6B41E80023BB62BB6A002B93
:103F1000E3D17B68202283F842207B6800221A6369
:103F20007B681B680C333B613B6953E8003FFB60D7
:103F3000FB6823F01003C7F8C0307B681B680C33A4
:103F4000D7F8C020FA61BB61B969FA6941E800237A
:103F50007B617B69002BE3D17B6802225A63B7F84F
:103F6000CE301946786800F044F823E0D7F8E43002
:103F700003F08003002B09D0D7F8E03003F0800372
:103F8000002B03D0786800F0EEF814E0D7F8E430A6
:103F900003F04003002B0ED0D7F8E03003F04003CD
:103FA000002B08D0786800F02DF904E000BF02E093
:103FB00000BF00E000BFE837BD4680BD80B483B0DD
:103FC00000AF786000BF0C37BD4680BC704780B43E
:103FD00083B000AF786000BF0C37BD4680BC70472F
:103FE00080B483B000AF786000BF0C37BD4680BCA2
:103FF000704780B483B000AF78600B467B8000BF11
:104000000C37BD4680BC704780B485B000AFF86007
:10401000B9601346FB80FB68BA689A62FB68FA884D
:104020009A85FB68FA88DA85FB6800225A64FB6887
:10403000222283F84220FB681B69002B07D0FB6813
:104040001B68DA68FB681B6842F48072DA60FB6800
:104050001B685A69FB681B6842F001025A61FB68E1
:104060001B68DA68FB681B6842F02002DA600023F4
:1040700018461437BD4680BC704780B495B000AF79
:1040800078607B681B680C337B637B6B53E8003F75
:104090003B633B6B23F49073FB647B681B680C33BE
:1040A000FA6C3A64FB63F96B3A6C41E80023BB633A
:1040B000BB6B002BE5D17B681B6814333B623B6A0A
:1040C00053E8003FFB61FB6923F00103BB647B689D
:1040D0001B681433BA6CFA62BB62B96AFA6A41E8C7
:1040E00000237B627B6A002BE5D17B681B6B012B75
:1040F00019D17B681B680C33FB60FB6853E8003FF9
:10410000BB60BB6823F010037B647B681B680C33C7
:104110007A6CBA617B617969BA6941E800233B61D5
:104120003B69002BE5D17B68202283F842207B6825
:1041300000221A6300BF5437BD4680BC704780B56B
:1041400084B000AF78607B685B6AFB60FB6800222C
:10415000DA85FB680022DA84F868FFF741FF00BFC8
:104160001037BD4680BD80B485B000AF78607B68F5
:1041700093F84130DBB2212B3ED17B689B68B3F5CD
:10418000805F14D17B681B69002B10D17B681B6A90
:10419000FB60FB681B881A467B681B68C2F3080239
:1041A0005A607B681B6A9A1C7B681A6208E07B680D
:1041B0001B6A591C7A6811621A787B681B685A60FE
:1041C0007B68DB8C9BB2013B9BB27A681946D18439
:1041D000002B0FD17B681B68DA687B681B6822F0B4
:1041E0008002DA607B681B68DA687B681B6842F0D3
:1041F0004002DA60002300E0022318461437BD466F
:1042000080BC704780B582B000AF78607B681B6867
:10421000DA687B681B6822F04002DA607B68202243
:1042200083F841207868FFF7C9FE00231846083755
:10423000BD4680BD80B58CB000AF78607B6893F8D8
:104240004230DBB2222B40F0AE807B689B68B3F536
:10425000805F17D17B681B69002B13D10023FB62A1
:104260007B689B6ABB627B681B685B689BB2C3F31D
:1042700008039AB2BB6A1A807B689B6A9A1C7B68A7
:104280009A6226E07B689B6AFB620023BB627B68C4
:104290009B68B3F5805F07D07B689B68002B0AD1D1
:1042A0007B681B69002B06D17B681B685B68DAB2F0
:1042B000FB6A1A7008E07B681B685B68DBB203F07E
:1042C0007F03DAB2FB6A1A707B689B6A5A1C7B68B0
:1042D0009A627B68DB8D9BB2013B9BB27A68194680
:1042E000D185002B5DD17B681B68DA687B681B6811
:1042F00022F02002DA607B681B68DA687B681B6842
:1043000022F48072DA607B681B685A697B681B68DC
:1043100022F001025A617B68202283F842207B68E8
:1043200000225A637B681B6B012B35D17B6800220E
:104330001A637B681B680C337B617B6953E8003F21
:104340003B613B6923F010037B627B681B680C3385
:104350007A6A3A62FB61F9693A6A41E80023BB6113
:10436000BB69002BE5D17B681B681B6803F0100359
:10437000102B0AD10023FB607B681B681B68FB6065
:104380007B681B685B68FB60FB687B689B8D1946DC
:104390007868FFF72EFE02E07868FFF718FE00232A
:1043A00002E0002300E0022318463037BD4680BDFE
:1043B00080B584B000AF78607B681B681B6923F40C
:1043C00040517B68DA687B681B680A431A617B6826
:1043D0009A687B681B691A437B685B691343BB60FF
:1043E0007B681B68DB6823F4B05323F00C037A6806
:1043F0001268B9680B43D3607B681B685B6923F460
:1044000040717B689A697B681B680A435A617B68C4
:104410001B682C4A934203D1FEF7F4FFF86002E0D8
:10442000FEF7DCFFF860FA6813469B0013449A001D
:104430001A447B685B689B00B2FBF3F3224AA2FB41
:1044400003235B091901FA6813469B0013449A0081
:104450001A447B685B689B00B2FBF3F21A4BA3FB28
:1044600002035B09642000FB03F3D31A1B01323300
:10447000154AA2FB03235B0903F0F0031944FA6811
:1044800013469B0013449A001A447B685B689B00A8
:10449000B2FBF3F20C4BA3FB02035B09642000FBAD
:1044A00003F3D31A1B013233074AA2FB03235B0930
:1044B00003F00F027B681B680A449A6000BF103744
:1044C000BD4680BD003801401F85EB5103460244C4
:1044D000934200D1704703F8011BF9E770B500263D
:1044E0000C4D0D4C641BA410A64209D100F01AF823
:1044F00000260A4D0A4C641BA410A64205D170BDCB
:1045000055F8043B98470136EEE755F8043B9847C9
:104510000136F2E7F8450008F8450008F8450008BC
:10452000FC450008F8B500BFF8BC08BC9E467047C3
:0C453000F8B500BFF8BC08BC9E46704700
:10453C004572726F722054780D0A00004572726FCA
:10454C00722052780D0A00000100000003000000E8
:10455C000200000002000000010000000100000049
:10456C00010000000000000001000000000000003D
:10457C000100000003000000020000000000000029
:10458C000300000000000000010000000200000019
:10459C0003000000040000000500000006000000FD
:1045AC0007000000070000000600000005000000E6
:1045BC0004000000030000000200000001000000E5
:1045CC0000000000000000000102030406070809B7
:1045DC000000000001020304020304050607080999
:0C45EC000A0B0C0D0E0F10100102000055
:0445F8003501000881
:0445FC0011010008A1
:1046000001000000010000000100000001000000A6
:104610000100000001000000010000000100000096
:104620000100000001000000010000000100000086
:104630000100000001000000010000000024F4005F
:08464000100000000100000061
:04000005080013815B
:00000001FF
